:100000000C94DE030C94FB030C94FB030C94FB0395
:100010000C94FB030C94FB030C94FB030C94FB0368
:100020000C94FB030C94FB030C948D130C94B017ED
:100030000C9471320C94FB030C94FB030C94FB03A3
:100040000C94FB030C94FB030C94FB030C94FB0338
:100050000C94FB030C9463140C94FB030C94FB03AF
:100060000C94FB030C94FB030C94FB030C94FB0318
:100070000C94FB030C94FB030C94FB030C94FB0308
:100080000C94FB030C94FB030C94FB030C94FB03F8
:100090000C94FB030C94FB030C94FB030C94FB03E8
:1000A0000C94FB030C94FB030C94FB0305010980E7
:1000B000A101850319012AB700150126B700950192
:1000C00075108100C0050C0901A101850419012AE0
:1000D000A002150126A002950175108100C005013E
:1000E0000906A1018505050719E029E71500250185
:1000F0009508750181020507190029EF15002501F2
:1001000095F075018102050819012905950575010C
:100110009102950175039101C005010902A1010930
:1001200001A100050919012905150025019505758D
:10013000018102950175038101050109300931151D
:1001400081257F95027508810609381581257F95DF
:100150000175088106050C0A38021581257F950175
:1001600075088106C0C005010906A101050719E04F
:1001700029E715002501950875018102950175088B
:1001800081010507190029FF150026FF0095067556
:100190000881000508190129059505750191029549
:1001A0000175039101C0000101010101010101017B
:1001B0000202020202020202020303030303030318
:1001C00003040404040404040505050505060606E5
:1001D0000606070707070708080808090909090AA2
:1001E0000A0A0B0B0B0C0C0C0D0D0D0E0E0E0F0F47
:1001F0000F101011111112121313141415151616D5
:100200001717181819191A1A1B1B1C1D1D1E1E1F43
:100210002020212222232424252626272829292A92
:100220002B2C2D2D2E2F30313232333435363738BA
:10023000393A3B3C3D3E3F404142434445464748B6
:10024000494A4C4D4E4F50515354555658595A5B8C
:100250005D5E5F616264656668696B6C6D6F70722C
:10026000737577787A7B7D7E8082838587888A8C98
:100270008E8F91939596989A9C9EA0A2A3A5A7A9CC
:10028000ABADAFB1B3B5B7BABCBEC0C2C4C6C9CBC3
:10029000CDCFD1D4D6D8DBDDDFE2E4E7E9EBEEF079
:1002A000F3F5F8FAFDFFFFAA7F5540222325262803
:1002B000292A2C2D2F3032333536383A3B3D3E40FB
:1002C00042434547494A4C4E5051535557595A5C41
:1002D0005E6062646668696B6D6F71737577797B58
:1002E0007D7F81838587898A8C8E90929496989A57
:1002F0009C9E9FA1A3A5A7A8AAACAEAFB1B3B4B66C
:10030000B8B9BBBCBEBFC1C2C3C5C6C7C9CACBCCC6
:10031000CDCED0D1D2D2D3D4D5D6D7D7D8D9D9DA99
:10032000DADBDBDBDCDCDCDCDCDDDDDDDDDCDCDC0E
:10033000DCDCDBDBDBDADAD9D9D8D7D7D6D5D4D336
:10034000D2D2D1D0CECDCCCBCAC9C7C6C5C3C2C10B
:10035000BFBEBCBBB9B8B6B4B3B1AFAEACAAA8A768
:10036000A5A3A19F9E9C9A98969492908E8C8A8920
:10037000878583817F7D7B79777573716F6D6B69FD
:1003800068666462605E5C5A5957555351504E4CD2
:100390004A4947454342403E3D3B3A383635333281
:1003A000302F2D2C2A29282625232216080A57DF2C
:1003B0005CD85CE00000001E00140004001D00E298
:1003C0000001571F001A0016001B00E3002B00203D
:1003D0000008000700060035002C00210015000968
:1003E00000190034000057220017000A0005000021
:1003F0000009572D00065700002F410000170F2E4F
:10040000000757000030430000025723001C000B78
:1004100000110000000357240018000D00100038E0
:1004200000045725000C000E00360031002C002679
:100430000012000F00370050002B0027001300337C
:100440000052005100055708572A002800D95C4F78
:100450000000000100010001000100010000003A5D
:10046000000100010001000100305D3B00010001BE
:1004700000010001002D5D3C00010001000100BEF3
:1004800000C45C3D00C75CCD5CCB5CBD002F5D3E15
:1004900000C65CCC5CCA5C0000C35C0100010000CB
:1004A00000010000002E5D010001000000010000BD
:1004B00000BC003F000100010001000000BB004043
:1004C000000100010001000100AB0041000100013A
:1004D0000001000100AE004200010001000100A87F
:1004E00000AD004300010001000100AA00AC00447F
:1004F00000450001000100A9000000010001000109
:1005000000010001000000010001000100010001E4
:1005100000010001000100F20001000100010001E2
:1005200000F000F1000100F400010001000100F3FF
:10053000000100F5000100010001000100010000C0
:1005400000010001000100000001000000010001A5
:100550000001000000010000000100010001000195
:100560000001000000010001000100010001000184
:100570000001000100010001000100010001000173
:100580000001000100010001000100010001000163
:100590000001000100010001000100010001000153
:1005A0000000000100010001000100010000000145
:1005B0000001000408010001000100010001000128
:1005C0000001000100010001000100010001000123
:1005D000000100010001001D0801000100010001EF
:1005E0000001001D0A0100000001000100010000DF
:1005F00000010000000100010001000000010000F6
:100600000001000100010006081B080000010001B4
:1006100000010019080100010001000100010001B2
:1006200000010001000100010001000100010001C2
:1006300000010001000100010001000100010001B2
:1006400000010001000100010000000100010001A3
:100650000001000100000001000100010001000193
:100660000001000100010001000100010001000182
:100670000001000100010001000100010001000172
:100680000001000100010001000100010001000063
:100690000001000100010000000100000001000154
:1006A0000001000000010000000100010001000144
:1006B0000001000000010001000100010001000133
:1006C0000001000100010001000100010001000122
:1006D0000001000100010001000100010001000112
:1006E0000001000100010001000100010001000102
:1006F00000000032190A00047F3F1F643214643284
:1007000014783C1E1E140A0509025400030100A0BF
:10071000FA0904000001030101000921110100018F
:100720002240000705810308000A090401000103B3
:10073000010200092111010001224D000705820379
:1007400008000A0904020001030000000921110148
:100750000001226D000705830320000A1201100129
:1007600000000008973274490100010200011603DD
:100770004500720067006F0044006F0078002000A1
:1007800045005A00000030035A0053004100200089
:1007900054006500630068006E006F006C006F001D
:1007A0006700790020004C006100620073002000A7
:1007B00049006E00630000000403090411241FBEF9
:1007C000CFEFDAE0DEBFCDBF27E0A6E8B2E001C0A0
:1007D0001D92AC37B207E1F712E0A0E0B1E0EEED18
:1007E000FCE602C005900D92A638B107D9F70E9429
:1007F000AC2E0C9422360C940000E8EDF0E08081E1
:100800008E7F80831092E2001092DA001092E10055
:10081000A0EEB0E08C9181608C9380818F77808393
:1008200019BCA7EDB0E08C918E7F8C9380818F7E78
:1008300080831092460708952091E4003091E500EE
:1008400095E6A9012091EC00822F817020FF06C05F
:100850008091E80080FF06C080E008952091E800C4
:1008600022FD1AC080916B07882389F0853089F0BA
:100870008091EB0085FD0FC02091E4003091E500F0
:1008800042175307F9F29150E1F684E0089582E0AF
:10089000089583E0089581E00895EF92FF920F9309
:1008A0001F93CF937C018B010E941C04C82F8111E0
:1008B00017C08091E80085FD0BC08091E8008E771D
:1008C0008093E8000E941C04882399F3C82F08C075
:1008D000F70181917F018093F1000150110949F7DF
:1008E0008C2FCF911F910F91FF90EF9008958091E1
:1008F0006D0787FF13C08091E80082FF06C08091DA
:10090000E8008B778093E80004C080916B07811129
:10091000F2CF089580916B078823D9F38091E80086
:1009200080FFF8CF8091E8008E77ECCF982F9093DE
:10093000E900242F762F50E0891731F07091EC00F8
:100940002091ED005091F00021FD07C09F5F97308E
:1009500071F78093E90081E008953091EB003E7FCC
:100960003093EB003091ED003D7F3093ED003091FE
:10097000EB0031603093EB007093EC002093ED00BE
:100980005093F0002091EE0027FDE0CF80E0089525
:10099000CF92DF92EF92FF920F931F93CF93DF934B
:1009A000C8EDD0E088818F7E8883E7EDF0E080811C
:1009B0008160808384E082BF81E0809346078881E4
:1009C0008E7F888302EE10E0F80110821092DA0028
:1009D00081EEC82ED12CF601108288818F77888312
:1009E00088818068888388818F7D888319BC109274
:1009F0006B0710926C0710926A071092690790EECD
:100A0000E92EF12CF70180818B7F808388818160C2
:100A1000888342E060E080E00E949604F6018081D5
:100A20008E7F8083F80180818160808380818860EF
:100A30008083F70180818E7F8083888180618883B5
:100A4000DF91CF911F910F91FF90EF90DF90CF90AA
:100A50000895FC01CB01209173073091740726178C
:100A6000370790F0009729F42091E8002E77209323
:100A7000E80040E0009751F4411108C08091E8007F
:100A800082FF31C080E00895C901F3CF20916B0748
:100A90002223A9F12530A9F12091E80023FD2DC0E2
:100AA0002091E80022FDEACF2091E80020FFE2CF6C
:100AB0003091F3002091F200009719F028303105B1
:100AC00058F041E02830310509F040E02091E8007D
:100AD0002E772093E800CECF41914093F10001970B
:100AE0002F5F3F4FE9CF80916B07882341F085301E
:100AF00041F08091E80083FFC1CF81E0089582E05A
:100B0000089583E00895089580914807089590918D
:100B10003207803F59F48091330787FF0DC0109250
:100B2000330791110BC010922E0708C0813F81F44A
:100B30008091330718169CF3992381F08091340734
:100B400090913507892B09F064C010922B07089506
:100B5000823F49F497FFF0CF10923207809133071C
:100B60008111ECCFE0CF833F19F41916ACF3E4CF39
:100B700020913407893F29F41216F4F610923407B5
:100B8000DBCF8A3F19F427FFD7CFF8CF2091350765
:100B90008B3F29F427FFD0CF10923507CDCF8C3F64
:100BA00019F41216CCF3C8CF843F31F48091310789
:100BB0008E7F80933107C0CF853F21F4809131072C
:100BC0008D7FF7CF863F21F4809131078B7FF1CF66
:100BD000873F21F480913107877FEBCF883F21F455
:100BE000809131078F7EE5CF8D3F31F48091EF0604
:100BF0008E7F8093EF06A0CF8E3F21F48091EF0689
:100C00008D7FF7CF8F3F09F097CF8091EF068B7FD5
:100C1000F0CF08958091EF0680FD1AC081FD14C0C9
:100C200082FD14C080912B07882391F08C3370F4DF
:100C300027E0829FC00111246CE370E00E947F33A3
:100C4000862F672B29F0089583E0089587E00895A3
:100C500081E008958091EF0680FD16C081FD16C0E9
:100C600082FD18C080912E07882391F08C3390F478
:100C700023E2829FC00111246CE370E00E947F3365
:100C8000862F672B49F0089588E0089581E1089543
:100C900085E0089583E2089581E00895803F31F46E
:100CA0000E942A068195809333070895813F19F4A5
:100CB0000E942A06F8CF823F31F40E942A068195CD
:100CC000809332070895833F19F40E942A06F8CFD3
:100CD000893F29F40E940A068093340708958A3FC9
:100CE00021F40E940A068195F7CF8B3F31F40E94D0
:100CF0000A0681958093350708958C3F19F40E9468
:100D00000A06F8CF843F31F48091310781608093E7
:100D100031070895853F21F4809131078260F7CF34
:100D2000863F21F4809131078460F1CF873F21F421
:100D3000809131078860EBCF883F21F480913107A3
:100D40008061E5CF8D3F31F48091EF068160809323
:100D5000EF0608958E3F21F48091EF068260F7CF71
:100D60008F3FB9F78091EF068460F1CF9C014FB7B8
:100D7000F8948091EB069091EC06A091ED06B0916D
:100D8000EE064FBF821B930B08959C0180911D02BC
:100D90008823C9F08091040787FF15C0E62FE695E8
:100DA000E695E695603FE0F4E20FF32FF11D6770E2
:100DB00081E090E001C0880F6A95EAF78095928102
:100DC000892382830895F9013296285F3F4F8191EC
:100DD000681303C0DF0111971C92E217F307B9F7FC
:100DE00008959C0180911D028823C1F08091040721
:100DF00087FF14C0E62FE695E695E695603FF8F488
:100E0000E20FF32FF11D677021E030E001C0220FE7
:100E10006A95EAF78281822B82830895F9013296DE
:100E20008FEF90E04191641751F08F3F19F4411119
:100E300001C0892F9F5F9630A9F78F3F09F408956D
:100E4000280F311D87FD3A95F9016283089580913D
:100E5000E60681111092E6060895982F90958091EC
:100E6000E50689238093E50608958091E506909133
:100E7000E406892B9091E306892B8093860290915A
:100E8000E6069923A1F0892B8093860280911D02AA
:100E9000882341F18091040787FF24C08EE1E8E8B0
:100EA000F2E090E0815000F591110E942707E09157
:100EB0000B07F0910C073097E1F080911D02882319
:100EC00059F08091040787FF07C0809186028093C4
:100ED000870285E0809386020280F381E02D86E818
:100EE00092E0099486E0DBCF21912223D9F29F5F23
:100EF000D9CF0895292F220FE22FE90FEE0FE80F27
:100F00009E2F9770E695E695E69585E0E89FF001BF
:100F10001124E555F94F50E040E080E0219130E0A8
:100F2000092E02C0369527950A94E2F721703327DF
:100F3000042E01C0220F0A94EAF7822B4F5F5F4F05
:100F40004530510559F70895292F220FE22FE90F57
:100F5000EE0FE80F8E2F877041E001C0440F8A9595
:100F6000EAF7E695E695E69585E0E89FF00111241D
:100F7000E555F94F30E020E070E05191DF01119725
:100F8000CB01022E02C0969587950A94E2F78170F4
:100F900081958527842385278C932F5F3F4F2530AC
:100FA000310559F708958091AA0690917906981312
:100FB00001C008958F5F8770FACF882341F0809534
:100FC0009091E40689238093E4060C9435070895F4
:100FD000882339F09091E406892B8093E4060C94E1
:100FE00035070895882321F00E942D070C943507BA
:100FF0000895882339F09091E506892B8093E506C2
:101000000C94350708952091420630914306281725
:10101000390771F09093430680934206E0910B07E5
:10102000F0910C07309721F00084F185E02D0994B0
:10103000089520914006309141062817390771F034
:101040009093410680934006E0910B07F0910C07C6
:10105000309721F00680F781E02D09940895E09102
:101060000B07F0910C07309721F00190F081E02DF3
:10107000099480E00895CF93DF93EC0181E0898BA0
:101080008091E5069F81892B8093E5068091E40697
:101090009885892B8093E4060E943507EA81FB81BD
:1010A000309739F06C897D89CE010696DF91CF911A
:1010B0000994DF91CF910895EF92FF920F931F93C0
:1010C000CF93DF93EC018A85811139C0EB80FC80DE
:1010D00087E5F81A26E12E9DC0012F9D900D112461
:1010E000DC01A25EBE4F1496ED91FC9115973097EE
:1010F00031F054966D917C918C5D9E4F099586E1FF
:101100008E9D80018F9D100D1124025E1E4FF801EF
:1011100087810E942D07F8018085982F90958091F6
:10112000E40689238093E4060E9435071882198615
:101130001B861E821D821092710610927006DF912E
:10114000CF911F910F91FF90EF900895FA018111B7
:101150000994FB01FDCF80912407982F9E7F29F4ED
:10116000817082608093240708958635E8F381704A
:101170008465F8CF8F929F92AF92BF92CF92DF9209
:10118000EF92FF920F931F93CF93DF93D82EC62E2B
:10119000E901E42FF0E0EA55FE4F611114C04491DB
:1011A000942FE42FE98348839A831B82DF91CF91A8
:1011B0001F910F91FF90EF90DF90CF90BF90AF9075
:1011C0009F908F900895062F10E0E49186E0D89EBE
:1011D000700111242FEF30E0C701B9010E946B3379
:1011E0008D2D90E0880F991FF5E5F69FA001F79FE0
:1011F000500D1124841B950B982F990F890FA9016D
:10120000401B510BE49FD001E59FB00D11244B2FE3
:10121000C89E60011124CD2CDD245901AC18BD08F5
:10122000EA9D6001EB9DD00C11249D2D4901881A87
:101230009108809E5001819EB00C909EB00C1124AC
:10124000AB2CBB242A193B09E29F8001E39F100DC0
:10125000112463307105D1F08CEFE81683E0F806B5
:1012600070F461307105B1F062307105B9F08FEF43
:10127000E816F10408F096CF9B2F412F93CF6430EE
:10128000710579F066307105B9F38CCF4D2D9E2F25
:10129000EB2F88CF4E2FED2D9B2F84CF912F4E2FEC
:1012A000F7CF9E2FE12F7ECF9091040792FF06C0CB
:1012B000282F28712830F9F4877F846093FF06C0B7
:1012C000282F28712831F1F4877E84612091050749
:1012D00020FF06C0382F38713830D9F4877F8160FD
:1012E00021FF06C0282F28712831D1F4877E816123
:1012F00094FD877E0895282F24712430F9F68B7F82
:101300008860DCCF282F2471243101F78B7E88611F
:10131000DDCF382F3171313019F78E7F8860E0CF03
:10132000282F2171213121F78E7E8861E1CFCF9363
:10133000DF93972F70E026E0929F600D711D1124BE
:10134000FB0134E5839FE00DF11D1124EE0FFF1F1B
:10135000E555FC4FC591D491CE01C03ED10509F4AD
:101360006DC060F5C133D10509F4B2C088F4C9324B
:10137000D10509F4A6C0CA32D10509F4B0C0C13004
:10138000D10549F12497C13AD10508F063C023C0C3
:10139000C933D10509F44BC0C238D10509F447C09F
:1013A000C533D10509F486C0C83AD10508F09EC0FE
:1013B000C53AD10520F3849790640DC0C43ED10591
:1013C00009F45BC058F4C23ED10509F446C0C33EDF
:1013D000D10509F447C0DF91CF910895C63ED105EC
:1013E00009F456C0C73ED10509F459C0C11542E5FC
:1013F000D40708F0AEC0C11521E5D20708F0F8C047
:10140000C83ED10540F3C11530E5D30708F086C0CA
:10141000C11540E4D40708F0E8C0CF3FD10511F072
:1014200008F076C09065C03FD105A8F613C02091A2
:101430000407237081F280EE90E0CDCF2091040765
:1014400020FDF8C03091050730FFC5CF83EE90E056
:1014500024FFC1CF90E080E0BECF2091040722FDA1
:10146000F5CFB9CF2091040722FDE7C030910507E1
:1014700030FDE1CF24FFAFCFEDCF2091050721FF55
:10148000AACF8091040784FDE5CF87EE90E0A3CF3B
:101490002091040723FF9FCF24FDDCCFF6CF2091BE
:1014A000040723FDCDC03091050731FFE3CF84EE63
:1014B00090E091CF2091040725FF8DCF89E290E045
:1014C0008ACF2091040725FF86CF85E390E083CF64
:1014D0002091040726FF7FCF8AE290E07CCF209105
:1014E000040726FF78CF81E390E075CF9E01285A4C
:1014F00031092731310508F0ADCF885AE82FF0E0E7
:10150000EE0FFF1FE75BFD4F80819181946463CFF5
:10151000DA95C115DF4108F45ECF9CCF9E01F4E05F
:1015200036952795FA95E1F7237086958695837011
:1015300030E2839FC0011124922BC37021E030E080
:1015400002C0220F331FCA95E2F7822B932B9C68AF
:1015500042CFC11546E5D40718F5C11525E5D207D8
:1015600008F052C0C11534E5D307A8F49C2F969516
:101570009695AE014370552721E030E002C0220F5E
:10158000331F4A95E2F740E2C115D345B0F5949F69
:10159000C0011124DACF9C2F8827846F906A1BCF5B
:1015A000C1158AE5D80780F4C11599E5D907A8F5D2
:1015B000CE0198558F3F910511F008F04BCF9C2F2D
:1015C0008827806F906A07CFCE0190568115904290
:1015D00008F040CF8D2F8F710E94540990E0982F12
:1015E000882788279F718C2B16C09F70906AF3CE36
:1015F0009C2F8827816F906AEECE949FC0011124A2
:10160000822B932B9A68E7CE0E94540990E0982F82
:10161000882788279F719062DECE8C2F8F700E9462
:10162000540934E0D695C7953A95E1F7CF709C2FD1
:101630009069D1CE89E390E0CECE82EE90E0CBCE21
:1016400086EE90E0C8CEBF92CF92DF92EF92FF92EB
:101650000F931F93CF93DF938C01C0900707D09017
:101660000807E0900907F0900A078091E70690913B
:10167000E806A091E906B091EA06C82AD92AEA2A22
:10168000FB2ACFE1D0E0BC2ED701C6010C2E04C04E
:10169000B695A795979587950A94D2F780FD0EC0C9
:1016A000219788F7B12C8B2DDF91CF911F910F914E
:1016B000FF90EF90DF90CF90BF900895B8018C2FEE
:1016C0000E949709019761F3EECFCF93DF93D82F54
:1016D000C92F0E94230B6D2F7C2FDF91CF910C948B
:1016E00097090E94650B282F892F8F70392F32950B
:1016F0003F70903C80F43A30B0F4343020F4323013
:1017000090F480E008953630E1F781E0283E88F0DB
:10171000213FB9F70EC03C3011F03F3091F786956C
:1017200086958695089581E0203F39F018F4283E8B
:1017300040F70895243F29F7FCCF08959C01FB0151
:101740009A9581159F4138F4832F817031FD826015
:1017500033FD886009940895FC018081813041F453
:101760009185911114C09285992389F082E00895A2
:10177000823041F48185811107C08285811106C0C4
:1017800083E0089586E0089585E0089584E0089553
:1017900027982F98089526982E98089525982D9883
:1017A000089556985E980895279A2F9A08950E9452
:1017B000D40B8AE090E090938D0080938C00089584
:1017C000269A2E9A08950E94E00B8AE090E090936A
:1017D0008B0080938A000895259A2D9A08950E947F
:1017E000EC0B84E190E09093890080938800089549
:1017F000209828982198299822982A9823982B98FD
:1018000052985A9853985B983E98469808958098B5
:10181000889A8198899A84988C9A85988D9A8698C6
:101820008E9A87988F9A0895CF93DF9300D00F9266
:10183000CDB7DEB790916B07943019F589836A8331
:101840007B8383E08093E9008FEF9091E8008150E3
:1018500095FD06C095ED9A95F1F700008111F5CF41
:101860008091E80085FF0DC050E040E063E070E04B
:10187000CE0101960E944D048091E8008E778093FE
:10188000E8000F900F900F90DF91CF910895BC0169
:1018900084E00C94140CBC0183E00C94140C22E042
:1018A0002093E9002FEF3091E800215035FD06C06C
:1018B00035ED3A95F1F700002111F5CF2091E800C0
:1018C00025FF0BC050E040E065E070E00E944D0451
:1018D0008091E8008E778093E8000895CF93DF939E
:1018E000D82FC92F80911D028823C1F18091040750
:1018F00087FF34C060E283E08093E9008FEF90912E
:10190000E800815095FD06C095ED9A95F1F700002D
:101910008111F5CF8091E80085FF1DC080911D02E7
:1019200070E050E040E0811104C050E040E068E029
:1019300070E08D2F9C2F0E944D048091E8008E77DF
:101940008093E80080E2ED2FFC2FA9E4B7E001903E
:101950000D928A95E1F7DF91CF91089568E081E0DB
:10196000CBCFEF92FF920F931F93CF93DF930E9401
:10197000D10B0E94CE0B0E94CB0B0E94C80B88E8B3
:10198000E82EF12C8FEF90E0F701918380830AE835
:1019900010E0F80191838083CCE8D0E099838883BC
:1019A0000E94EC0BFFEF20E782E0F15020408040E6
:1019B000E1F700C000000E94E00B9FEFE0E7F2E0DB
:1019C0009150E040F040E1F700C000000E94D40BCD
:1019D0002FEF80E792E0215080409040E1F700C077
:1019E00000000E94CE0BEFEFF0E722E0E150F04064
:1019F0002040E1F700C000000E94CB0B8FEF90E782
:101A0000E2E081509040E040E1F700C000000E9419
:101A1000C80B8091F2068770FFEF8F9FC0011124E1
:101A200095958795959587959927F701918380835B
:101A3000F80191838083998388830E94D10B0E944F
:101A4000CE0B0E94CB0BDF91CF911F910F91FF9096
:101A5000EF900C94C80BCF9384E090E00E94773510
:101A6000C82F81E290E00E947735982F8C2FCF917C
:101A700008950F931F93CF93DF938B01D82FC92F16
:101A80000E94AB08A8016D2F7C2F88E090E0DF91C9
:101A9000CF911F910F910C949D35CF93DF9300D080
:101AA00000D0CDB7DEB780912807882319F0815088
:101AB000809328078091240790912507A0912607FD
:101AC000B091270789839A83AB83BC83BC01CD0186
:101AD0000F900F900F900F90DF91CF910C94390DD4
:101AE000CF93DF9300D000D0CDB7DEB78091280729
:101AF000833018F48F5F809328078091240790919A
:101B00002507A0912607B091270789839A83AB8385
:101B1000BC83BC01CD010F900F900F900F90DF910F
:101B2000CF910C94390DCF93DF9300D000D0CDB777
:101B3000DEB7E4E2F7E083E0808311828FEF8283F7
:101B40008383148280819181A281B38189839A8366
:101B5000AB83BC83BC01CD010F900F900F900F9011
:101B6000DF91CF910C94390D6FEE7EEF90E080E025
:101B70000E94A93560E082E090E00E948B3560E031
:101B800083E090E00E948B351092E7061092E80601
:101B90001092E9061092EA0660E084E090E00E946C
:101BA0008B3560E081E290E00E948B3560E085E05B
:101BB00090E00E948B3560E086E090E00E948B35DB
:101BC0006FEF87E090E00E948B3540E050E0BA0173
:101BD00088E090E00E949D3560E08DE090E00E94FA
:101BE0008B3540E050E0BA0188E190E00E949D35DD
:101BF00060E087E190E00E948B3540E050E0BA0160
:101C00008CE190E00E949D3560E080E290E00E94CF
:101C10008B3540E050E0BA0188E190E00E949D35AC
:101C20001092F2061092F3061092F4061092F50646
:101C300084E080618093F2064091F2065091F306B1
:101C40006091F4067091F5068FE090E00E949D355A
:101C500040E050E0BA0183E190E00C949D35CF93D1
:101C6000C82F873070F58091110290911202892B54
:101C700099F564E670E080E40E949E32909312022F
:101C800080931102892BD1F464E670E082E10E9416
:101C9000FA329093120280931102892B79F481E039
:101CA00090E001C0880FCA95EAF764E670E080957D
:101CB0000E94FA329093120280931102CF910C94F9
:101CC0004D338B30C9F050F4893081F08A3089F07F
:101CD000883049F0209A2898CF9108958C3079F473
:101CE000539A5B98F9CF219A2998F6CF229A2A988D
:101CF000F3CF239A2B98F0CF529A5A98EDCF3E9A71
:101D00004698EACFCF93DF938091240780FD0BC0E4
:101D1000E5EBF2E01182108212821382349652E0D7
:101D2000E13FF507B9F7C5EBD2E0FE0192812081D2
:101D30003181892F291708F4822F381708F4832F4F
:101D40008383381B3183281B2083981B928334960E
:101D500082E0E13FF80751F70E94983264E670E0B4
:101D600084E80E949E3264E670E088810E94FA3224
:101D700064E670E089810E94FA3264E670E08A814C
:101D80000E94FA3264E670E08B810E94FA32249657
:101D900092E0C13FD90739F70E944D33579A3BB1C2
:101DA0003F772BB120684FB7F89485EB92E0FC01A8
:101DB0000196508168E02BB9000000C057FF3BB985
:101DC000550F000000C000C000C03BB900C06A95BC
:101DD00091F752E0813F950751F74FBF8FE594E0AF
:101DE0000197F1F700C00000DF91CF9108958F9225
:101DF0009F92AF92BF92CF92DF92EF92FF920F939A
:101E00001F93CF93DF93FC01B280A48081E0848391
:101E1000C1EFD2E005EB12E08BE4982E8824839486
:101E2000EE24EA94F12C2BE4C22ED12CA1101DC07B
:101E30001B821A8298014A81698188810E94BA08AE
:101E400025960C5F1F4F83E0CC33D80779F7DF91DD
:101E5000CF911F910F91FF90EF90DF90CF90BF90A7
:101E6000AF909F908F900C94820E2B81222309F1CA
:101E700021502B833C81892D821B311101C0822F7F
:101E800090912707899FC0011124B6010E946B33EE
:101E90006A83211104C0332311F01C829B8222E04B
:101EA0002B1540F28091250788838091260789832E
:101EB000C1CF0E943234823091400CF0BBCF82E01F
:101EC0008B15C0F40E943234B7010E947F3388839F
:101ED00022E02B1590F40E9432342091260726959B
:101EE000622F70E00E947F33280F29831A829B8221
:101EF0008C82A0CF80912507EACF20912607F5CFCD
:101F0000EF92FF921F93CF93DF93EC0185EBE82EC6
:101F100082E0F82E10E08C819701409127076091B4
:101F20002607810F0E94BA081F5E84E0E80EF11CAC
:101F30001F3F89F70E94820E9A818C8190FF08C012
:101F40008F5F8C83DF91CF911F91FF90EF90089569
:101F50008150F7CFCF92DF92EF92FF920F931F93B2
:101F6000CF93DF93FC018281DD24DA9480FD02C0EF
:101F7000DD24D39405EB12E0D0E0C0E0F80111823B
:101F800010821282138294E0E92EF12CC12C8091F0
:101F9000B2028C0D8031E4F16FE00E945D33892F35
:101FA000082E000C990B8C179D0791F48091270740
:101FB0008E9DA0018F9D500D1124559547955595E7
:101FC0004795980160912607809125070E94BA08DD
:101FD000CD0CF1E0EF1AF108D1F621960C5F1F4FFE
:101FE000CF30D10559F60E94820E8091B20291E065
:101FF000D91214C0811110C08EE08093B202DF911B
:10200000CF911F910F91FF90EF90DF90CF900895A7
:1020100087FFC6CF815FC4CF8150EFCF90E001969C
:10202000BE010E947F33E9CF0F931F93CF93DF93BD
:10203000C5EBD2E0FE011182108212821382349627
:1020400082E0E13FF807B9F710E000E08091B302C9
:10205000082E000C990B081719078CF180911801B4
:10206000082E000C990B801791074CF19E014091AE
:10207000270760912607809125070E94BA080F5F05
:102080001F4F24960F30110509F70E94820E809190
:1020900017019091B302980F9093B3022091180109
:1020A000280F20931801121614F49E301CF081950D
:1020B00080931701DF91CF911F910F91089519829D
:1020C00018821A821B82DBCFCF92DF92EF92FF92AF
:1020D0000F931F93CF93DF93CDB7DEB72E970FB635
:1020E000F894DEBF0FBECDBF8D879E87AD85BE85C0
:1020F00014961C91212F30E0D9010E9413369B01C8
:10210000AC010E94DE3569837A838B839C83E0E295
:10211000F0E0E11BF109A5E5B0E09B01AC010E94F4
:10212000DE3569877A878B879C879F01DF010E9454
:1021300099339B01AC010E94E9356D837E838F83C7
:1021400098879B01AC0189819A81AB81BC81280F62
:10215000391F4A1F5B1F69857A858B859C850E9484
:10216000F135F22E822F90E0A9E2A21708F442C0C6
:10217000B3E02B9F9001112435952795122F1095D0
:1021800095EBC92E92E0D92E00E085E5E82EEF18F8
:102190008E2D01FD8F2D9601412F609126070E9403
:1021A000BA080F5FF4E0CF0ED11C0F3089F70E9400
:1021B000820EAD85BE8514969C9181E0992319F01D
:1021C000903219F48FEF8093190180911901890FD2
:1021D000ED85FE8584832E960FB6F894DEBF0FBE84
:1021E000CDBFDF91CF911F910F91FF90EF90DF90C6
:1021F000CF90089525E530E0F901E81BF90B9F0128
:10220000220F331F2E0F3F1F37FFB6CF2F5F3F4FD9
:10221000B3CFEF92FF920F931F93CF93DF93EC0115
:1022200005EB12E0F12CE12C609126078091250747
:102230009C8127E0E216F104FCF49923F9F098015F
:10224000409127070E94BA088FEFE81AF80A0C5F3E
:102250001F4F2FE0E216F10439F70E94820E8C81A5
:1022600090E00196817099278C83DF91CF911F9127
:102270000F91FF90EF900895992309F3980140E0A2
:10228000E1CF9091240790FF0DC0E5EBF2E0818350
:10229000608342831382349692E0E13FF907B9F7F5
:1022A0000C94820E08950F931F93CF93DF9300D069
:1022B00000D0CDB7DEB78C018091B40281110AC085
:1022C0009E012F5F3F4F4FEF6FEF0E94BA088A8148
:1022D0008093B402F8016481613049F06230F9F012
:1022E0008091B40240E0662331F040E01AC0609172
:1022F000B40240E080E00E944111F801848190E046
:10230000019663E070E00E947F3384830F900F900A
:102310000F900F90DF91CF911F910F9108954091F1
:10232000B40280E060E0E7CFCF93DF9300D000D02D
:10233000CDB7DEB79091240790FF0AC09E012F5FB2
:102340003F4F0E94BA084B8169818A810E944111E6
:102350000F900F900F900F90DF91CF910895CF9332
:10236000DF93EC01EC81F0E0E555FD4F4491E4E2B0
:10237000F7E0628181810E9494118C818F5F8C8350
:10238000DF91CF910895CF93DF93EC01E4E2F7E082
:10239000438162818C810E9494118C818F5F8C8338
:1023A000DF91CF9108955F926F927F928F929F926B
:1023B000AF92BF92CF92DF92EF92FF920F931F9353
:1023C000CF93DF93CDB7DEB728970FB6F894DEBF73
:1023D0000FBECDBF182F762E042F622E90912407AA
:1023E00090FF2BC0E92FE695AE2FB0E0A25EBD4F67
:1023F0008C91809329079E7F9230A9F59E012F5FD3
:102400003F4F812F0E94BA084B8169818A810E94C7
:102410004111109325077092260700932707662025
:1024200061F08091240790912507A0912607B09133
:102430002707BC01CD010E94390D28960FB6F894EC
:10244000DEBF0FBECDBFDF91CF911F910F91FF90E7
:10245000EF90DF90CF90BF90AF909F908F907F9044
:102460006F905F900895823019F400912707D1CFC3
:10247000863019F410912507CCCF8930D9F38931F2
:1024800041F6E9518E2F8170582EE695F0E0EA551D
:10249000FD4FA590B490BB2485EBE82E82E0F82E8A
:1024A000D12CC12C9FE0892E912CC601B4010E9431
:1024B0006B33812F511013C0860F9701402F672D6A
:1024C0000E94BA08CA0CDB1C94E0E90EF11CA1EFD3
:1024D000EA16A2E0FA0649F70E94820E9ACF861BFE
:1024E000ECCFE4E2F7E043812CE0421B08F440E04B
:1024F00021E0628181810C94D311E4E2F7E0438111
:102500002CE0420F08F44FEF21E0628181810C94AE
:10251000D311E4E2F7E062812FEF621B08F460E080
:1025200021E0438181810C94D311E4E2F7E06281E0
:102530002FEF620F08F46FEF21E0438181810C944B
:10254000D311E4E2F7E0818121E0438162818C5084
:102550000C94D311E4E2F7E0818121E043816281B0
:10256000845F0C94D311CF93DF9300D000D0CDB70C
:10257000DEB7E4E2F7E080818E7F80838081918105
:10258000A281B38189839A83AB83BC83BC01CD01D3
:102590000E94390D10922A079FEFA0E7B2E09150F8
:1025A000A040B040E1F700C000000F900F900F90E6
:1025B0000F90DF91CF910C94820E80E290E0909387
:1025C0001202809311028091A60281110EC00E9416
:1025D000983281E08093A6022FEF83ED90E32150A3
:1025E00080409040E1F700C0000064E670E080E4C5
:1025F0000E949E329093120280931102892B09F05F
:102600004EC064E670E080E00E94FA3290931202BD
:1026100080931102892B09F042C064E670E080E0EB
:102620000E94FA329093120280931102892BB9F51D
:1026300064E670E08FE30E94FA3290931202809376
:102640001102892B61F50E944D3364E670E080E44D
:102650000E949E329093120280931102892BF9F40A
:1026600064E670E08CE00E94FA329093120280934C
:102670001102892BA1F464E670E080E00E94FA3236
:102680009093120280931102892B49F464E670E062
:102690008FE30E94FA3290931202809311020E94FB
:1026A0004D33809111020895CF93DF93873058F511
:1026B0008091110290911202C0E0892B71F464E6BE
:1026C00070E081E40E949E32909312028093110286
:1026D000892B39F0C0E00E944D338C2FDF91CF91D0
:1026E000089584E690E00E942933EC0197FF05C02D
:1026F0009093120280931102EDCFC09510921202B6
:1027000010921102E8CFCFB12FB1269526952C73E8
:10271000C3702C2BC22FC095E0CF1F920F920FB623
:102720000F9211242F933F934F935F936F937F9357
:102730008F939F93AF93BF93EF93FF938091E100AB
:1027400082FF09C08091E20082FF05C08091E10014
:102750008B7F8093E1008091DA0080FF24C080911C
:10276000D80080FF20C08091DA008E7F8093DA004D
:102770008091D90080FF99C080E189BD82E189BD47
:1027800009B400FEFDCF81E080936B07809146077E
:10279000811109C00E94FD030E94C8048091E200DB
:1027A00084608093E2008091E10080FF17C08091F7
:1027B000E20080FF13C08091E2008E7F8093E200F0
:1027C0008091E20080618093E2008091D800806275
:1027D0008093D80019BC85E080936B078091E1005D
:1027E00084FF27C08091E20084FF23C080E189BD7F
:1027F00082E189BD09B400FEFDCF8091D8008F7DB4
:102800008093D8008091E1008F7E8093E1008091D9
:10281000E2008F7E8093E2008091E20081608093ED
:10282000E20080916C07882309F445C084E080931E
:102830006B078091E10083FF27C08091E20083FF56
:1028400023C08091E100877F8093E10082E0809344
:102850006B0710926C078091E1008E7F8093E100FE
:102860008091E2008E7F8093E2008091E20080619F
:102870008093E20042E060E080E00E949604809154
:10288000F00088608093F000FF91EF91BF91AF91CD
:102890009F918F917F916F915F914F913F912F9178
:1028A0000F900FBE0F901F90189519BC10926B07D8
:1028B0001092460778CF8091E30087FD02C081E047
:1028C000B6CF83E0B4CF78941F921FB61F92112425
:1028D0008F939F93AF93BF938091EB069091EC06FB
:1028E000A091ED06B091EE060196A11DB11D809359
:1028F000EB069093EC06A093ED06B093EE06BF9125
:10290000AF919F918F911F901FBE1F9018952FB769
:10291000F8948091EB069091EC06A091ED06B091B1
:10292000EE062FBF08950E94871420913207309140
:102930003307232B21F080932F07909330072091AA
:10294000340730913507232B21F080932C07909387
:102950002D07E0910B07F0910C07309731F00480C0
:10296000F581E02D81E397E0099408951092E40643
:102970001092E3060E94350785E0E1E3F7E0DF010E
:102980001D928A95E9F710922E0710922B0710924C
:10299000EF060E94931490E080E00E94190890E0F6
:1029A00080E00C9403086093E7067093E806809338
:1029B000E9069093EA060C94B6141092E50680910D
:1029C0001D02E8E8F2E0882359F08091040787FFB0
:1029D00007C08EE1DF011D928A95E9F70C94B614C9
:1029E00086E0F8CF1F93CF93DF93CDB7DEB7AA97DA
:1029F0000FB6F894DEBF0FBECDBF8DE697E0FC01A9
:102A000001962091F100208327E085379207B9F7DE
:102A100080916E07893009F456C0C8F4823009F4F9
:102A2000B2C0833009F481C0813071F18091E80037
:102A300083FF35C180916D0790916E079A3008F041
:102A40002EC1E92FF0E0EC5DF94C0C9493338A3001
:102A500009F488C08B3051F780916D07813231F7CE
:102A60008091710790917207892B01F78091E8009E
:102A7000877F8093E8000E94770480916F0780939E
:102A80001D020E94DD14D2CF80916D07813A71F64C
:102A90008091E800877F8093E80080917107909192
:102AA0007207892B61F460E289E497E070E00E948C
:102AB00029058091E8008B778093E800B7CF60E02C
:102AC00090E080E0F3CF80916D07813209F0AECFC6
:102AD00080917107909172078D7F892B09F0A6CFA5
:102AE0008091E800877F8093E8008091E80082FF72
:102AF00017C09091F3008091F200029729F4809121
:102B0000F1008B7F813021F48091F10080934807A0
:102B10008091E8008B778093E8000E94770486CF4D
:102B200080916B078111E1CF81CF80916D07813A50
:102B300009F07CCF8091710790917207892B09F081
:102B400075CF8091E800877F8093E8008091E8004E
:102B500080FFFCCF80911D028093F1008091E800FE
:102B60008E77D9CF80916D07813209F05FCF809148
:102B7000E800877F8093E8000E94770480917007C7
:102B80008093470753CF80916D07813A09F04ECF6C
:102B90008091E800877F8093E8008091E80080FFC3
:102BA000FCCF80914707D8CF803899F0823809F060
:102BB00076C0809171078F70873008F070C0809365
:102BC000E9008091EB0085FB882780F91092E900ED
:102BD00006C08091690790916A0791118260909177
:102BE000E800977F9093E8008093F1001092F10045
:102BF0008091E8008E77AFC1882309F49CC18230B0
:102C000009F04DC080916F078111A0C180917107BB
:102C10008F702FEF280F263008F041C08093E90015
:102C20002091EB0020FF92C1933031F48091EB00B2
:102C300080628093EB008AC19091EB009061909349
:102C4000EB0021E030E001C0220F8A95EAF72093E3
:102C5000EA001092EA008091EB008860EACF8111CF
:102C60001EC010916F071F778091E3008078812B41
:102C70008093E3008091E800877F8093E8000E94C2
:102C800077048091E80080FFFCCF8091E3008068AA
:102C90008093E30082E0111183E080936B078091C1
:102CA000E80083FF0AC08091E800877F8093E800F6
:102CB0008091EB0080628093EB00AA960FB6F894A7
:102CC000DEBF0FBECDBFDF91CF911F910895805819
:102CD000823028F740916F07509170074C3D83E098
:102CE0005807A1F583E08A838AE289834FB7F89475
:102CF000DE01139620E03EE051E2E32FF0E0509336
:102D00005700E49120FF03C0E295EF703F5FEF7042
:102D10008E2F90E0EA30C0F0C7968D939D932F5F81
:102D2000243159F74FBF8091E800877F8093E800F6
:102D30006AE270E0CE0101960E9429058091E800C8
:102D40008B778093E800ABCFC096E7CF8091710777
:102D500090917207252F33272330310509F44AC09B
:102D600078F52130310509F479C084E590E0E8E098
:102D7000F7E02230310509F092CF2091E800277F5B
:102D80002093E8002091730730917407821793070E
:102D900008F49C0140E02115310509F064C041119F
:102DA00062C08091E80082FDC9CF80916B078823C3
:102DB00029F2853019F28091E80083FFF2CFBECF6F
:102DC0002132310509F43BC02232310509F067CFC9
:102DD0008330910508F063CFFC01EE0FFF1FE6582A
:102DE000FD4F0190F081E02D89589D4FDC018C91C1
:102DF00090E011C0CA019927413089F082309105D5
:102E0000B1F0892B09F04BCFE8EBF7E0E4918E2F7E
:102E100090E0E8EBF7E0009709F441CFAECFE6E8A9
:102E2000F7E0E4918E2F90E0E6E8F7E0F4CFEEE6ED
:102E3000F7E0E4918E2F90E0EEE6F7E0ECCF833000
:102E4000910508F02CCF880F991FFC01E058FD4F29
:102E50000190F081E02D89E090E08FCF82E190E059
:102E6000ECE5F7E08ACF80916B07882309F466CF01
:102E7000853009F463CF8091E80083FD5FCF8091B6
:102E8000E80082FD8ECF8091E80080FF84CF909192
:102E9000F3008091F2002115310519F08830910579
:102EA00050F041E0089709F040E08091E8008E770B
:102EB0008093E80070CF44914093F1003196215007
:102EC00031090196E8CF803809F0E9CE8091E80019
:102ED000877F8093E80080916C078093F10088CE13
:102EE0008111DDCE10916F07123008F0D8CE80919D
:102EF000E800877F8093E80010936C070E947704B6
:102F0000112311F084E005C08091E30087FDFACF22
:102F100081E080936B0742E061EC81E00E949604BF
:102F200042E061EC82E00E94960442E261EC83E0C0
:102F30000E949604B4CE80916F07813009F0AFCE25
:102F400081E0933009F080E080936A071092E900F5
:102F50008091E800877F8093E8000E9477049FCEED
:102F60001F920F920FB60F9211242F933F934F93FE
:102F70005F936F937F938F939F93AF93BF93CF9301
:102F8000DF93EF93FF93D091E900DF708091EC0025
:102F9000C82FC17080FDC0E81092E9008091F00058
:102FA000877F8093F00078940E94F2141092E900D9
:102FB0008091F00088608093F000CD2BCF70C0939B
:102FC000E900FF91EF91DF91CF91BF91AF919F9178
:102FD0008F917F916F915F914F913F912F910F90C2
:102FE0000FBE0F901F901895882379F19CEF980FD2
:102FF000913A38F4682F86E892E00E94C5060C9456
:10300000350790E2980F983050F4877091E001C036
:10301000990F8A95EAF7892F0E942D07F0CF9BE53B
:10302000980F933020F490E080E00C94190898E514
:10303000980F973120F490E080E00C940308803FD3
:1030400020F00E9487050C9493140895CF93DF938A
:10305000EC010E94F417CE01805E910962EF77E0E7
:10306000089710F06DED77E0CE01DF91CF910C94D1
:103070009E0B8FE39CE90197F1F700C0000080915F
:103080000B01833051F038F4813039F0823051F047
:1030900010920B0108958530D9F78CE298E00E94D8
:1030A0002618F6CF81EE90E0FACF8FE39CE90197E6
:1030B000F1F700C0000080910B01833051F08B7F4D
:1030C000813021F487E198E00E94261810920B01CC
:1030D000089581E198E0F8CF8FE39CE90197F1F73B
:1030E00000C0000080910B01833091F038F48130F2
:1030F00039F0823051F010920B0108958530D9F7E4
:103100008EE490E00E942618F6CF80E591E0FACF99
:103110008DE490E0F7CF8FE39CE90197F1F700C0D1
:10312000000080910B01833091F038F4813039F048
:10313000823051F010920B0108958530D9F78BE45D
:1031400090E00E942618F6CF8FE491E0FACF8AE44F
:1031500090E0F7CF8FE39CE90197F1F700C0000002
:1031600080910B01833051F038F4813039F0823096
:1031700051F010920B0108958530D9F78BE292E05F
:103180000E942618F6CF81EE90E0FACF8FE39CE9FB
:103190000197F1F700C0000080910B01833051F0DE
:1031A00038F4813039F0823051F010920B010895DB
:1031B0008530D9F782E591E00E942618F6CF80EE9F
:1031C00090E0FACF8FE39CE90197F1F700C000008F
:1031D00080910B01833051F08B7F813021F489E2A3
:1031E00090E00E94261810920B0108958AE198E061
:1031F000F8CF8FE39CE90197F1F700C000008091C0
:103200000B01833091F038F4813039F0823051F085
:1032100010920B0108958530D9F781E29AE00E945F
:103220002618F6CF82E29AE0FACF80E29AE0F7CF52
:10323000CF93C82F882309F46DC08CEF8C0F813A8F
:10324000B8F580911D02882311F18091040787FF52
:103250001EC0EC2FE695E695E695F0E0EA57FD4FA7
:10326000828190E04C2F477021E030E002C0220FB5
:10327000331F4A95E2F782239323892B89F06C2F21
:1032800086E892E00E94C5060E94350709C0E8E87A
:10329000F2E08191C81799F322E0EE38F207C9F7FE
:1032A0006C2F86E892E00E94F106CF910C943507CE
:1032B00080E28C0F883068F4C77021E030E001C0F4
:1032C000220FCA95EAF78091E506822B8093E506E6
:1032D000ECCF8BE58C0F833038F42C2F2452330B3A
:1032E000C901CF910C941908E8E5EC0FE73150F4CF
:1032F000F0E0EE0FFF1FE75BFD4F80819181CF91E2
:103300000C940308C03F30F08C2F0E944E06CF91E2
:103310000C949314CF910895FF920F931F93CF9322
:10332000DF93C62FD42F122FFC0182818823A9F0AE
:10333000609377070E9487149093760780937507B0
:10334000C77081E001C0880FCA95EAF7DF91CF917D
:103350001F910F91FF900C94F907809177076813E4
:1033600037C080917507909176070E94B606883C19
:10337000910570F500E20D0FCD17A9F0C770FF247D
:10338000F3948F2D01C0880FCA95EAF70E94F207C7
:10339000083048F48D2F877001C0FF0C8A95EAF73A
:1033A0008F2D0E94F907812F0E941819812F0E94EA
:1033B000F4170830A0F4D77081E001C0880FDA95C7
:1033C000EAF7DF91CF911F910F91FF900C94F207D4
:1033D000C77081E001C0880FCA95EAF7F2CFDF918C
:1033E000CF911F910F91FF900895CF93DF93EC0140
:1033F000805E910969EF77E0089710F068EE77E05A
:10340000CE010E949E0B8C2FDF91CF910C94181946
:10341000CF93DF93D82FC92F0E94F5198D2F9C2FA2
:10342000DF91CF910C942618CF93DF93EC01888124
:10343000833061F48CE298E00E94081A8CE298E0F4
:103440000E94081A8CE298E00E94081A8881843051
:1034500030F08CE298E0DF91CF910C94081ADF9164
:10346000CF910895CF93DF93EC018881833061F48D
:1034700087E198E00E94081A87E198E00E94081A04
:1034800087E198E00E94081A8881843030F087E153
:1034900098E0DF91CF910C94081ADF91CF910895B5
:1034A000CF93DF93EC018881833061F48EE490E068
:1034B0000E94081A8EE490E00E94081A8EE490E0C0
:1034C0000E94081A8881843030F08EE490E0DF9109
:1034D000CF910C94081ADF91CF910895CF93DF9389
:1034E000EC018881833061F48BE490E00E94081A3B
:1034F0008BE490E00E94081A8BE490E00E94081A86
:103500008881843030F08BE490E0DF91CF910C948F
:10351000081ADF91CF910895CF93DF93EC01888152
:10352000833061F48BE292E00E94081A8BE292E011
:103530000E94081A8BE292E00E94081A8881843067
:1035400030F08BE292E0DF91CF910C94081ADF917A
:10355000CF910895CF93DF93EC018881833061F49C
:1035600082E591E00E94081A82E591E00E94081A23
:1035700082E591E00E94081A8881843030F082E56B
:1035800091E0DF91CF910C94081ADF91CF910895CB
:10359000CF93DF93EC018881833061F489E290E07E
:1035A0000E94081A89E290E00E94081A89E290E0DD
:1035B0000E94081A8881843030F089E290E0DF911F
:1035C000CF910C94081ADF91CF910895CF93DF9398
:1035D000EC018881833061F481E29AE00E94081A4C
:1035E00081E29AE00E94081A81E29AE00E94081A99
:1035F0008881843030F081E29AE0DF91CF910C94A1
:10360000081ADF91CF9108950E94AC0B80930B01B3
:10361000833089F028F4813071F0823021F00895F0
:10362000853029F0089581EE90E00C94F5198CE234
:1036300098E00E94081A8CE298E0F7CF0E94AC0B49
:1036400080930B01833039F0853049F0813061F48B
:1036500087E198E002C081E198E00C94F51987E1D8
:1036600098E00E94081AF4CF08950E94AC0B809352
:103670000B01833069F028F4813089F0823021F029
:103680000895853041F0089580E591E00C94F51996
:103690008DE490E0FBCF8EE490E00E94081A8EE467
:1036A00090E0F4CF0E94AC0B80930B01833069F063
:1036B00028F4813089F0823021F00895853041F07E
:1036C00008958FE491E00C94F5198AE490E0FBCF23
:1036D0008BE490E00E94081A8BE490E0F4CF0E9403
:1036E000AC0B80930B01833069F028F4813071F0CA
:1036F000823021F00895853061F0089581EE90E0E8
:103700000C94F5198BE292E00E94F5198BE292E09D
:10371000F7CF8BE292E00E94081AF8CF0E94AC0B20
:1037200080930B01833069F028F4813071F082308E
:1037300021F00895853061F0089580EE90E00C94BA
:10374000F51982E591E00E94F51982E591E0F7CF45
:1037500082E591E00E94081AF8CF0E94AC0B80939A
:103760000B01833039F0853049F0813061F489E212
:1037700090E002C08AE198E00C94F51989E290E0AB
:103780000E94081AF4CF08950E94AC0B80930B019D
:10379000833069F028F4813089F0823021F0089577
:1037A000853041F0089582E29AE00C94F51980E2A8
:1037B0009AE0FBCF81E29AE00E94081A81E29AE047
:1037C000F4CF60912407669570E04BE050E08CE008
:1037D00091E00E946A35892B19F481E080932A07D1
:1037E0000E94871490931F0780931E070895CF931C
:1037F000DF9300D000D0CDB7DEB79091240790FFC3
:1038000042C09170811135C0926090932407662365
:1038100081F08091240790912507A0912607B0910F
:10382000270789839A83AB83BC83BC01CD010E94A7
:10383000390D60912407669570E04BE050E08CE014
:1038400091E00E946A35892BD9F010922A0781E015
:103850008093210720E040912707609126078091FF
:1038600025070F900F900F900F90DF91CF910C9440
:10387000D3118B3210F09465C8CF880F982BC5CF29
:103880000E94E11BE4CF0F900F900F900F90DF91FB
:10389000CF91089561E00C94F71BE4E2F7E080819A
:1038A0008160808386950C944A1C9091240796959C
:1038B0008FEF890F913009F48AE261E00C94F71BD5
:1038C0008091240786958F5F8B3208F081E061E05C
:1038D0000C94F71B9091240790FF07C096959817BA
:1038E00020F0961710F40C94601C0C944A1CCF9393
:1038F000DF9300D000D00F92CDB7DEB769837A8313
:103900008B839C8329813A814B815C8120936A0659
:1039100030936B0640936C0650936D06CA01AA273C
:10392000BB270097A105B10509F452C030E13D83E2
:10393000492F5A2F6B2F77274115510561057105C6
:1039400029F08D81885F8D83DB01CA01AC01BD0147
:10395000E4E07695679557954795EA95D1F7411537
:1039600051056105710529F09D819C5F9D83DB01F7
:10397000CA01AC01BD0132E0769567955795479530
:103980003A95D1F7411551056105710529F0AD81D1
:10399000AE5FAD83DB01CA01B695A7959795879574
:1039A000892B8A2B8B2B19F0BD81BF5FBD830E94B1
:1039B000D10B0E94CE0B0E94CB0B0E94C80BED8155
:1039C000E150E73068F4F0E0E25DF94C0C94933399
:1039D00089819A81AB81BC811D82AACF0E94EF0BA5
:1039E0008091AA02882309F10E94EF0B0E94E30B49
:1039F0000E94D70B69817A818B819C810F900F90F7
:103A00000F900F900F90DF91CF9108950E94EF0BD0
:103A10000E94E30BE5CF0E94EF0B0E94D70BE0CF93
:103A20000E94EF0B0E94E30BF8CF80916E0681118C
:103A3000DBCF809165062D812430B1F48111DACF7E
:103A40008091240781608093240760E086950E941E
:103A5000F71B60E081E00E94F71B20E042EE6BEF75
:103A600080EC0E94D311C6CF8111C4CF88E090E0D2
:103A70000E947F3560932407709325078093260763
:103A80009093270760FF0FC00E944D1C8091240770
:103A900086950E944A1C21E04091270760912607E5
:103AA00080912507DECF0E94B312A4CF0E94771C1D
:103AB00060930707709308078093090790930A079C
:103AC0000C94B6140F931F93CF93DF9300D000D0C4
:103AD000CDB7DEB741E050E060E070E004C0440FD5
:103AE000551F661F771F8A95D2F7409550956095B0
:103AF00070958091070790910807A0910907B091F0
:103B00000A078A019B01082319232A233B230983DF
:103B10001A832B833C83C901B8010F900F900F903B
:103B20000F90DF91CF911F910F910C94561D9091A2
:103B3000E206809589238093E206282F277071F48E
:103B4000282F082E000C330B9217130639F0859599
:103B5000859585950E94621D1092E20608958091D8
:103B6000A902882319F01092A90208958FE39CE915
:103B70000197F1F700C0000080910B01833051F0F4
:103B800038F4813039F0823051F010920B010895F1
:103B90008530D9F780E392E00E942618F6CF84E0C2
:103BA0000E94621DF2CF8091A902882319F0109221
:103BB000A90208958FE39CE90197F1F700C0000086
:103BC00080910B01833051F038F4813039F082302C
:103BD00051F010920B0108958530D9F78FE292E0F1
:103BE0000E942618F6CF82E00E94621DF2CF0F934A
:103BF0001F93CF93DF9300D000D0CDB7DEB741E065
:103C000050E060E070E004C0440F551F661F771F4E
:103C10008A95D2F78091070790910807A09109072C
:103C2000B0910A078A019B01082B192B2A2B3B2BE9
:103C300009831A832B833C83C901B8010F900F902D
:103C40000F900F90DF91CF911F910F910C94561D03
:103C50002091A90221111FC00E94AC0B80930B017F
:103C6000833061F028F4813069F0823021F00895CA
:103C7000853061F0089584E00C94F71D80E392E0B4
:103C80000E94F51980E392E00C94F51980E392E02C
:103C90000E94081AF7CF0895CF93DF93EC0180912B
:103CA000A802882361F084E00E94621D81E090E018
:103CB0000E94F5191092A80281E08093A9028091D8
:103CC0006E06882361F084E00E94F71D81E090E099
:103CD0000E94F51981E08093A8028093A90288814F
:103CE000833061F480E392E00E94081A80E392E05E
:103CF0000E94081A80E392E00E94081A88818430AA
:103D000030F080E392E0DF91CF910C94081ADF91BC
:103D1000CF9108952091A90221111FC00E94AC0BE0
:103D200080930B01833061F028F4813069F0823098
:103D300021F00895853061F0089582E00C94F71D1C
:103D40008FE292E00E94F5198FE292E00C94F5194F
:103D50008FE292E00E94081AF7CF0895CF93DF9385
:103D6000EC018091A702882361F082E00E94621D2D
:103D700081E090E00E94F5191092A70281E0809303
:103D8000A90280916E06882361F082E00E94F71DEF
:103D900081E090E00E94F51981E08093A702809372
:103DA000A9028881833061F48FE292E00E94081AB0
:103DB0008FE292E00E94081A8FE292E00E94081AB5
:103DC0008881843030F08FE292E0DF91CF910C94C3
:103DD000081ADF91CF91089560E070E0CB010C9458
:103DE000561DAF92BF92CF92DF92EF92FF920F9348
:103DF0001F93CF93DF9300D000D000D0CDB7DEB7B4
:103E00009C01FB0180913F06811197C0428149834B
:103E100041112BC028308DE5380709F44DC050F40E
:103E20002530ADE53A0769F026303D4581F121E0C6
:103E300029831BC029303D4509F464C081E0898392
:103E400014C091E090933C030E9487140E94EC0BF5
:103E50000E94DD140E94EC1E8DE393E090933E06D9
:103E600080933D06A1E0A0933F06898126960FB678
:103E7000F894DEBF0FBECDBFDF91CF911F910F91A0
:103E8000FF90EF90DF90CF90BF90AF90089581E0CA
:103E900080933C030E9487140E94EC0B0E94DD1467
:103EA0000E94EC1E87E396E090933E0680933D06C9
:103EB00082E080933F06D9CFA0901C01B0901D01F5
:103EC000C0900707D0900807E0900907F0900A0714
:103ED0000E94DD140E94EC1E0DE313E0A016B10653
:103EE00059F40E94DD14C0920707D0920807E092AF
:103EF0000907F0920A07B9CFC8010E9465200A5F3E
:103F00001F4FECCFA0901A01B0901B01C090070783
:103F1000D0900807E0900907F0900A070E94DD148E
:103F20000E94EC1E07E316E0A016B106D1F2C8010C
:103F30000E94652006501109F7CFA90145505D4543
:103F40004330510508F06AC091E027303D4509F43F
:103F500090E02281291731F0813031F0823089F1EF
:103F600010923F06198281CF80913D0690913E06C6
:103F70009E838D8310923C038091070790910807E0
:103F8000A0910907B0910A0789839A83AB83BC8308
:103F9000BC01CD010E94771CAD81BE8123E0AD3311
:103FA000B20729F0FD0136978281811107C08D810A
:103FB0009E8190931D0180931C01D2CFFE83ED83DF
:103FC000EBCFA0913D06B0913E06BE83AD8310922B
:103FD0003C038091070790910807A0910907B091D1
:103FE0000A0789839A83AB83BC83BC01CD010E94FD
:103FF000771CAD81BE8126E0A733B20729F0FD0111
:1040000036968281811107C08D819E8190931B011C
:1040100080931A01A5CFFE83ED83EBCF813029F089
:10402000823039F191E0998320CF20911A013091AB
:104030001B01A0913D06B0913E068281811104C012
:1040400043E0AD33B407D9F1CD01069728173907FE
:1040500009F4EDCE86E001900D928A95E1F780910A
:104060003D0690913E06069690933E0680933D064F
:10407000E5CE20911C0130911D01A0913D06B0912B
:104080003E068281811104C096E0A733B907D1F0C2
:10409000CD0106962817390709F4D0CE86E00190A5
:1040A0000D928A95E1F780913D0690913E06069724
:1040B00090933E0680933D06A1E0A983D6CEB1E061
:1040C000B983D3CE41E04983D0CE2F923F924F9215
:1040D0005F926F927F928F929F92AF92BF92CF9298
:1040E000DF92EF92FF920F931F93CF93DF93CDB7A1
:1040F000DEB72A970FB6F894DEBF0FBECDBF3C01E6
:10410000DC0113968D919C911497892B49F01C9199
:104110001196FC90812F8F218F3F11F00C94AA2AC9
:104120002A960FB6F894DEBF0FBECDBFDF91CF91B8
:104130001F910F91FF90EF90DF90CF90BF90AF90C5
:104140009F908F907F906F905F904F903F902F90B7
:1041500008950E94230B082F682F89819A810E945D
:10416000A407E12FF0E0B6E0FB9EE00DF11D112465
:1041700014E5019FE00DF11D1124EE0FFF1FE55521
:10418000FC4F059114914801D30112968C91811135
:10419000BBC0C80181509545F8018F3F910508F4D7
:1041A000F3C0D30112968C91882309F460C3EF3FCA
:1041B000F10509F008F417C1EF3DFC4509F4E7C02B
:1041C00010926406B301C4010E94F11E882309F411
:1041D000E4C00BE280160DE5900609F045C0D3015E
:1041E00012968C91882309F43FC08091F20691E0E9
:1041F000980F9770887F953008F4892B8093F2068A
:104200008091F2068770BFEF8B9FC00111249595B6
:104210008795959587959927909389008093880035
:1042200090938B0080938A0090938D0080938C00F4
:104230004091F2065091F3066091F4067091F506F4
:104240008FE090E00E949D350091070710910807CC
:104250002091090730910A070E831F832887398729
:10426000C901B8010E94771C8091E50680936F0612
:1042700080916E06882371F1D30112968C91811181
:1042800012C010926E0600916A0610916B06209182
:104290006C0630916D060E831F8328873987C9010C
:1042A000B8010E94771C1AED81161CE5910690F466
:1042B00028ED82162CE5920608F055C33FE28316DE
:1042C00031E4930609F45CC340E3841643E49406A6
:1042D00009F466C380916806882309F472C3BFE2BB
:1042E0008B16B1E49B0609F06CC3F301828188232D
:1042F00009F453C081E00E94621D81E090E00E94B9
:10430000F5191092680649C0809110028F3F09F498
:1043100040CF5EE1E52E51E0F52ED12CC12CBB241F
:10432000B39480911002082E000C990B8C159D05FA
:104330000CF42FCFF70186818823F9F081859285CF
:104340008017910739F4809170069091710680175B
:10435000910799F0D7011F96BC921F971C961C934A
:104360000E931B9751968C91811103C0C7010E9437
:104370003B08C70106960E945C08BFEFCB1ADB0A18
:10438000E6E1EE0EF11CCDCF25E5F2270ACF8091B4
:10439000640691E08927809364068091E206877025
:1043A00009F4BECED30112968C91882309F4B8CEBD
:1043B00082E02A960FB6F894DEBF0FBECDBFDF9124
:1043C000CF911F910F91FF90EF90DF90CF90BF9012
:1043D000AF909F908F907F906F905F904F903F90A5
:1043E0002F900C94971D80916406882309F4E2C0F5
:1043F000109264068F01E03CF105F0F5E038F1051C
:1044000008F0A3C0005411090034110508F46AC073
:1044100021E030E040E050E060E070E080E090E0DB
:104420000E2F0E94A833C0904406C22AD0904506A1
:10443000D32AE0904606E42AF0904706F52A009138
:104440004806062B10914906172BB0914A06B82B47
:10445000A0914B06A92BC0924406D0924506E0924B
:104460004606F09247060093480610934906B0931B
:104470004A06A0934B0634C0005C110921E030E0ED
:1044800040E050E060E070E080E090E00E94A833FF
:10449000C0905C06C22AD0905D06D32AE0905E06EA
:1044A000E42AF0905F06F52A00916006062B109131
:1044B0006106172BB0916206B82BA0916306A92B59
:1044C000C0925C06D0925D06E0925E06F0925F06B6
:1044D0000093600610936106B0936206A093630692
:1044E0004F0170CE21E030E040E050E060E070E04D
:1044F00080E090E00E94A833C0904C06C22AD09081
:104500004D06D32AE0904E06E42AF0904F06F52A95
:1045100000915006062B10915106172BB0915206B0
:10452000B82BA0915306A92BC0924C06D0924D06F1
:10453000E0924E06F0924F060093500610935106FB
:10454000B0935206A0935306CBCF0058110921E037
:1045500030E040E050E060E070E080E090E00E94F9
:10456000A833C0905406C22AD0905506D32AE090B2
:104570005606E42AF0905706F52A00915806062BB5
:1045800010915906172BB0915A06B82BA0915B06D3
:10459000A92BC0925406D0925506E0925606F0928E
:1045A00057060093580610935906B0935A06A093E5
:1045B0005B0696CFE034F10508F06EC0209044060B
:1045C000309045064090460650904706B091480608
:1045D000A091490600914A060E8310914B061A8756
:1045E00021E030E040E050E060E070E080E090E00A
:1045F0000E2F0E94A833A22EA220B32EB320C42EC9
:10460000C420D52ED520E62EEB22F72EFA220E81DD
:1046100008231A8519230E94C13309F0D3CD8F01D5
:10462000E03CF10508F098C0E038F10508F0F0C072
:10463000005411090034110508F4BDC021E030E038
:1046400040E050E060E070E080E090E00E2F0E94DB
:10465000A83320953095409550956095709580953C
:10466000909522213321442155216B237A23EE8119
:104670008E23FA859F23209344063093450640936A
:104680004606509347066093480670934906809308
:104690004A0690934B0681CEE038F105F0F4209065
:1046A0004C0630904D0640904E0650904F06B0910B
:1046B0005006A0915106209152062E833091530648
:1046C0003A8721E030E040E050E060E070E080E0D8
:1046D00090E08F01005411098CCFE03CF105F0F41B
:1046E000209054063090550640905606509057063C
:1046F000B0915806A091590640915A064E835091A8
:104700005B065A8721E030E040E050E060E070E076
:1047100080E090E08F01005811096BCF20905C067B
:1047200030905D0640905E0650905F06B091600646
:10473000A0916106609162066E83709163067A872C
:1047400021E030E040E050E060E070E080E090E0A8
:104750008F01005C11094DCF005C110921E030E0B0
:1047600040E050E060E070E080E090E00E94A8331C
:1047700020953095409550956095709580959095D1
:1047800022213321442155216B237A23AE818A23B0
:10479000BA859B2320935C0630935D0640935E06AA
:1047A00050935F0660936006709361068093620683
:1047B00090936306F2CD21E030E040E050E060E00D
:1047C00070E080E090E00E94A833209530954095FD
:1047D00050956095709580959095222133214421C4
:1047E00055216B237A23AE818A23BA859B2320939C
:1047F0004C0630934D0640934E0650934F066093FF
:104800005006709351068093520690935306C5CD7F
:104810000058110921E030E040E050E060E070E035
:1048200080E090E00E94A833209530954095509507
:1048300060957095809590952221332144215521D2
:104840006B237A23EE818E23FA859F2320935406CF
:10485000309355064093560650935706609358067A
:104860007093590680935A0690935B0696CDEF3F5E
:10487000F10511F008F0A6CCE034F10550F5A09058
:104880004406B0904506C0904606D0904706E0909A
:104890004806F0904906A0914A06B0914B0621E0E7
:1048A00030E040E050E060E070E080E090E00E2F0B
:1048B0000E94A833A222B322C422D522E622F722E4
:1048C000082F0A23192F1B230E94C13309F07ACC29
:1048D00064CDE038F105E0F4A0904C06B0904D06B0
:1048E000C0904E06D0904F06E0905006F0905106D2
:1048F000A0915206B09153068F010054110921E096
:1049000030E040E050E060E070E080E090E0D0CF48
:10491000E03CF105A0F4A0905406B0905506C0907C
:104920005606D0905706E0905806F0905906A09190
:104930005A06B0915B068F0100581109E0CFA09094
:104940005C06B0905D06C0905E06D0905F06E09079
:104950006006F0906106A0916206B09163068F0137
:10496000005C1109CCCFD30112968C91882309F4F5
:1049700014CD81EE0E94181981E0809369060DCD57
:10498000F3018281882309F408CD81E00E94F71D9C
:1049900081E090E00E94F51981E080936806FDCCEB
:1049A000D30112968C91882309F4F7CC83E00E94FE
:1049B000F71D81E090E00E94F51981E08093670681
:1049C000ECCC80916706882369F0F0E38F16F3E45E
:1049D0009F0641F4D30112968C91882309F4DDCC13
:1049E00083E089CC80916906882361F0B8ED8B164D
:1049F000BCE59B0609F4A3C0E9ED8E16ECE59E0626
:104A000009F4B5C0FDE28F16FDE59F0609F40BC160
:104A100008F0B0C01FED81161CE5910609F4CDC069
:104A20002CE282162DE5920609F406C13AE28316BD
:104A3000910409F4D5C0C40197558F3F910511F039
:104A400008F033C120911002022E000C330B2817FE
:104A5000390714F480931002D30112962C91129707
:104A600036E1389F7001399FF00C11248701025EF6
:104A70001E4FF801208B12969C918681992309F490
:104A800007C1928681868F5F86830E948714D80132
:104A90001E969C938E931D978091E60617968C9395
:104AA00017978091E4069091E506892B18968C93D0
:104AB0001897ED91FC911197309739F054966D91BC
:104AC0007C91C7018C5D9E4F0995909271068092F2
:104AD0007006D30112969C91992309F450C5109247
:104AE0007707B6E18B16BCE59B0608F021C1E2E032
:104AF0008E16ECE59E0608F4C9C10E942B0D90931A
:104B0000050780930407F6E18F16FCE59F0608F081
:104B10003BC102E080160CE5900608F028C16091C8
:104B200004071091050784E090E00E948B35612F07
:104B300081E290E00E948B350E94DD142ECCD301DF
:104B400012968C91882321F081EE0E94181925CCB1
:104B500081EE0E94F41780916906882309F41DCC28
:104B600080916E06811119CC1092690616CCF30162
:104B70008281E8CF4FE284164DE5940609F469C0BE
:104B800050E385165DE5950609F473C06EE286165E
:104B90006DE5960609F04FCFF3018281882309F471
:104BA000FCCB0E944D1C81E00E944A1C21E040E8A1
:104BB0006FEF87ED0E94D311F0CB81E080936E06FA
:104BC00080916A0690916B06A0916C06B0916D067B
:104BD0008E839F83A887B987BC01CD010E94771C73
:104BE000D30112968C91882399F080916F0682727E
:104BF00009F421CF82E20E942D078CE40E9418194B
:104C000081E08093660680916F068093E506C5CBB0
:104C100080916606882309F40ECF8CE40E94F41775
:104C200010926606BACBF3018281882309F4B5CBD2
:104C300081E00E944A1CB1CBD30112968C9188234B
:104C400009F4ABCB8091650691E0892780936506D6
:104C5000A4CBD30112968C91882309F49ECB0E9499
:104C60004D1C81E00E944A1C21E04EEE62E788E87C
:104C7000A1CFF3018281882309F48FCB0E944D1CC0
:104C800081E00E944A1C21E04FEF6FEF8BE192CF51
:104C9000882309F41ECF8189882309F41ACFC7011C
:104CA0008C5D9E4F0E945C0814CFF5EF8F16FCE5DB
:104CB0009F0699F1B8F419ED81161CE5910649F1AA
:104CC0002AED82162CE5920681F126E241EE61EE94
:104CD00038ED83163CE5930609F0FBCEC3010E9434
:104CE0008C195BCB47EF84164CE59406D1F027E294
:104CF00045EE66EE58EF85165CE5950679F366EFAE
:104D000086166CE5960609F0E4CE27E245EE64EEE1
:104D1000E5CF27E245EE65EEE1CF26E241EE60EE1B
:104D2000DDCF26E241EE62EED9CF28E241E0F3CFBB
:104D300094012C5F3C452730310508F4DECEB6E106
:104D40008B16BCE59B0609F0A1C08091E5068A7A26
:104D500091E009F490E09093720669E2811165E3B5
:104D600086E892E00E94F1060E94350716CBF40116
:104D7000E350FC45809104078160E331F105A0F424
:104D8000EB5CF94C0C949333F401EC5FFC45E73099
:104D9000F10508F0C4CEE85BF94C809105070C944E
:104DA000933380910407826080930407B8CE80918A
:104DB00004078460F9CF809104078860F5CF816093
:104DC00080930507ACCE8260FBCF809104078061A1
:104DD000EBCF809104078062E7CF80910407806465
:104DE000E3CF0E94DD14809104078068DDCF8091BD
:104DF00004078C60D9CF8360E3CF809104078E7F56
:104E0000D3CF809104078D7FCFCF809104078B7F14
:104E1000CBCF80910407877FC7CF8E7FD1CF8D7F87
:104E2000CFCF809104078F7EBFCF809104078F7D05
:104E3000BBCF809104078F7BB7CF0E94DD14809198
:104E400004078F77B1CF80910407837FADCF8C7F2C
:104E5000B7CF8091040782FB992790F921E0922730
:104E600090FB82F990FB83F99FCF982F90959170DA
:104E70008E7F892B90FB81F9A3CF0E94DD14909146
:104E80000407892F97FB87F980588ECF8091E5061C
:104E90008272F401E35CFC45E431F10508F05AC08C
:104EA000E15BF94C0C9493338091240780FF03C09D
:104EB0000E94B31272CA0E944D1C6FCA45E55CE1A4
:104EC00060E67CE10E94A60868CA40E65CE165E510
:104ED0007CE1F8CF41EA52E16AEA72E1F3CF4AEAB3
:104EE00052E161EA72E1EECF49E852E165E972E12F
:104EF000E9CF45E952E169E872E1E4CF41E752E1E7
:104F00006DE772E1DFCF4DE752E161E772E1DACFA1
:104F10004DE45DE060E77DE0D5CF40E75DE06DE426
:104F20007DE0D0CF65E082E00E946A1C36CA68E06E
:104F300086E0FACF6EE089E0F7CF64E18FE0F4CF4E
:104F400067E185E1F1CF88E174CE62E289E1ECCFDF
:104F500083E26FCE992359F081141CE5910609F480
:104F60004BC020EE82162CE5920609F482C0F301B4
:104F7000E080F180992309F47FC0C7010E94230BD0
:104F8000182F682FC7010E94A407B701812F0E9424
:104F900097098C01982ED3011596EC901597E29401
:104FA0003FE0E3221296FC90F1101092E40680910B
:104FB000E206877099F0FF2089F0812F807F80348E
:104FC00021F080E2800F883048F082E00E94971D37
:104FD0008091E2068770BB24B3948111B12C812F9C
:104FE00082958F70C82ED12C8C3008F07CC0F601D1
:104FF000ED59F94C0C9493330E94DD143FEF44E3D8
:105000005CE0315040405040E1F700C00000F894AF
:1050100081E08093E00080E28093D8001092C90084
:105020008FE19EE40197F1F700C000001DBA1092D5
:1050300068001CBC10BE1FBA10927A0010926E005D
:1050400010926F0010927100109272001092C900BD
:105050001092BC0014B817B81AB81DB810BA109244
:10506000BC0015B818B81BB81EB811BA0C94003F94
:1050700094C90E94B40D91C9C7010E947A07182FE4
:1050800084CFB12FBF70EB2E107F19F0E29420EF88
:10509000E222802FFF20C9F0EE2069F090E2900F0D
:1050A000983010F001110BC08091E506E82AE092DB
:1050B000E5060E943507802F0E94181914C08091C0
:1050C000E406E82AE092E406F4CF0E94F417EE200A
:1050D00051F0005E083010F0911046C08E2D0E94F5
:1050E0002D070E943507A8E0CA1AD108B4E0CB16F4
:1050F000D10410F40E942F08BB20A9F08091E20691
:1051000080FD11C0F30112828595859585950E94D9
:10511000F71DC3010E9465208091E2068595859563
:1051200085950E94621D85E0F301DE0111960190D4
:105130000D928A95E1F789819A810E947A079A8176
:10514000E981F0E006E0909FE00DF11D112414E5E7
:10515000819FE00DF11D1124EE0FFF1FE555FC4F5F
:10516000859194910C949020E0948091E406E8223B
:10517000E092E406B6CFE12FEF70AE2E107F103232
:1051800019F0A29490EFA922992041F0F1E09F1626
:1051900031F1FF2079F1EE2041F18DCFFF2091F028
:1051A0009091E6068A2D892BE11003C00E94F90731
:1051B0009ACF01E0E012FACF891709F494CF8093D7
:1051C000E60691CFE11006C00E9427078A2D0E94B3
:1051D000F20789CF11E0E11609F485CFF5CFFF2062
:1051E00031F021E02E1508F47ECF8A2DDFCFE110BB
:1051F0007ACFECCFEE2051F3093349F43FEF47EE7D
:1052000053E0315040405040E1F700C00000802F93
:105210000E94F41768CF812F86958695837061F080
:10522000813009F060CFC8019370F11002C090E0A6
:1052300080E00E94030857CFC8019370F11002C0AC
:1052400090E080E00E9419084ECF802FFF2029F0C7
:105250000E944E060E94931446CF0E948705FACF03
:10526000812F837009F072C0F1103DCF202F22955D
:1052700026952770220F220F402F4F7050E070E0CC
:1052800060E0022E04C0440F551F661F771F0A946A
:10529000D2F780E090E0DC0104FF0FC08FE090E0E7
:1052A000A0E0B0E004C0880F991FAA1FBB1F2A9579
:1052B000D2F780959095A095B095E12FE695E6956B
:1052C000E370E23051F1E33009F10091E70610910B
:1052D000E8062091E9063091EA06E13099F0842B46
:1052E000952BA62BB72BAC01BD0140235123622384
:1052F00073234E835F8368877987CB01BA010E944D
:10530000D314F1CE402B512B622B732B8A019B01BE
:10531000082B192B2A2B3B2B12C0842B952BA62B49
:10532000B72B4091E7065091E8066091E90670912D
:10533000EA068C019D0104271527262737270E83AF
:105340001F8328873987C901B801D9CF8695FF20E7
:1053500011F0812F8170882309F4C5CE202F22956A
:1053600026952770220F220F402F4F7050E070E0DB
:1053700060E0022E04C0440F551F661F771F0A9479
:10538000D2F780E090E0DC0104FF0FC08FE090E0F6
:10539000A0E0B0E004C0880F991FAA1FBB1F2A9588
:1053A000D2F780959095A095B095E12FE695E6957A
:1053B000E370E23081F1E330F9F0009107071091DA
:1053C00008072091090730910A07E13089F0842B02
:1053D000952BA62BB72BAC01BD0140235123622393
:1053E00073234E835F8368877987CB01BA0110C02E
:1053F000402B512B622B732B8A019B01082B192BFD
:105400002A2B3B2B0E831F8328873987C901B801BC
:105410000E94561D68CE842B952BA62BB72B40914E
:105420000707509108076091090770910A078C01DE
:105430009D010427152726273727E4CF1F70FF205B
:1054400029F0812F0E94F71D802FB0CE802F0E945F
:10545000F207812F0E94621D46CE802F22EF921606
:1054600009F444C0291570F030EF931609F141EFAB
:105470009416A1F1FF2009F45DC0E1101CCE812F2C
:105480008F7131C053EF9516B1F164EF9612F2CFE0
:10549000FF2009F444C01F71812F0E94F71D58E0BE
:1054A000159FC001112483608093E206812F1BC0E9
:1054B000FF2079F0E11017CE1F7181E090E0A0E0AD
:1054C000B0E004C0880F991FAA1FBB1F1A95D2F71E
:1054D000A6CF21E02E1508F406CEEECF812F8F71D6
:1054E000FF2009F4B7CF0E94F71DFDCD812F8F71EA
:1054F000FF20C9F3AFCFFF2079F01F7181E090E06A
:10550000A0E0B0E0AC01BD0104C0440F551F661F10
:10551000771F1A95D2F765CF0E94EC1EE4CD81E08B
:105520000E94971D61E06E1508F0DDCD82E00E94BB
:10553000971DD9CDEE2059F0893309F068CE7FEF61
:1055400087EE93E0715080409040E1F75ECE812F6E
:105550008F7180CF85E0F301DE01119601900D92ED
:105560008A95E1F7D30112962C9189819A812111B4
:105570000C94A9200E947A07082F0C94B120E6E130
:105580008E16ECE59E0609F0F2CC8091720669E277
:10559000811165E386E892E00E94C506E5CB1F9382
:1055A000CF93DF9380917806807FA9F48091750670
:1055B000882389F08091AA06D091790660917306BC
:1055C00070917406A0917606B0917706C62FC72316
:1055D00016E0D81304C0DF91CF911F91089590E099
:1055E000109711F0CF3F19F401968770F2CF189FF2
:1055F0009001199F300D1124F901E658F94F4181AE
:105600004713F2CF40814613EFCF42814111ECCFD7
:10561000438154814A1B5B0B483C510528F780911C
:1056200078068F70806180937806F901E158F94F10
:1056300080818F708061808383E796E00E9465207F
:10564000DF91CF911F910C94D307AF92BF92CF926D
:10565000DF92EF92FF920F931F93CF93DF93CDB71B
:10566000DEB72B970FB6F894DEBF0FBECDBF8C010F
:1056700085E0F801DE01179601900D928A95E1F719
:10568000F80180819181E28023E7A22E26E0B22EEC
:1056900060917606709177066115710509F421C154
:1056A0003091730640917406242F23232F3F09F471
:1056B00018C1C380D480F0907506F601E61BF70B85
:1056C000FF2009F4DFC020917806522F507FE83C7C
:1056D000F10508F0BAC0511177C0FE2C491321C062
:1056E00038131FC0E1101DC02F7020612093780671
:1056F000C5010E94652080917806F80185838F2D71
:105700002B960FB6F894DEBF0FBECDBFDF91CF91C1
:105710001F910F91FF90EF90DF90CF90BF90AF90CF
:105720000895CD2829F0282F29232F3F09F0F7C00D
:1057300020E0F22FF170DF2EE091AA064091790669
:1057400056E020FD1CC0EE20D1F2809178068160E9
:1057500080937806F12CD3CF2E2F30E05E9FF0019E
:105760001124E658F94F6181961306C060818613B3
:1057700003C06281E612E7CFF9013196E770E413C6
:10578000EBCF8F8398878F8198850E94650B292F97
:1057900022952F70903260F0225F2F70223078F4C3
:1057A0009F7051F0F8019581907F31F4D12C0AC09F
:1057B0009F7011F08823D1F3805E8830B8F3C80160
:1057C0000E946520FD2C9BCF491312C0381310C0D6
:1057D000E1100EC0F8012583C8010E94652086E013
:1057E000F801A3E7B6E001900D928A95E1F787CF23
:1057F0008F8398878F8198850E94710B882309F188
:10580000EE20F9F080917806803270F020917306D6
:10581000309174063A8329831B82DD82CC828E8389
:10582000CE0101960E94652086E0F801A3E7B6E06C
:1058300001900D928A95E1F70E94CF2AFF24F394FC
:105840005ECFC8010E946520F9CF51110AC083E7DD
:1058500096E00E94652086E0F50111928A95E9F7AD
:1058600079CF4913C5CF3813C3CFE110C1CFF801A9
:105870002583C8010E94652086E0F50111928A9572
:10588000E9F73DCFE83CF105B8F7FE2CEE20C9F270
:10589000491316C0381314C08091780680FD9FCF3D
:1058A000982F907F09F49BCFF8018583903F09F4EE
:1058B00093CF982F907F905F8F70892B85838CCFAB
:1058C0008F8398878F8198850E94710B8111ACCF4F
:1058D00080917806816080937806C8010E946520D7
:1058E0000ECFEE2009F4ADCF8F8398878F819885F6
:1058F0000E94710BF82E882309F4A3CF86E0F801EB
:10590000A3E7B6E001900D928A95E1F780917306C6
:10591000909174060E94650B0E94CF2AF0CE21E080
:105920002E2507CF1F93CF93DF93CDB7DEB76797B1
:105930000FB6F894DEBF0FBECDBF4B8B5C8B6D8B6B
:105940007E8B8F8B1A8A85E0FE017396DE011D9691
:1059500001900D928A95E1F786E0FE013D96DE0109
:10596000179601900D928A95E1F7CE0107960E9455
:10597000252B882389F016E08091AA06909179065C
:1059800089134FC067960FB6F894DEBF0FBECDBF28
:10599000DF91CF911F91089586E0FE013796DE01D9
:1059A000119601900D928A95E1F74A855B85411524
:1059B000510509F37F816885862F87238F3FD9F2B0
:1059C0002091790630E0C901019687709927E0910E
:1059D000AA06E817190671F40E94DD1410927906E0
:1059E0001092AA0686E0E3E7F6E0DF011D928A95B1
:1059F000E9F7C1CF79836A835D834C8396E0929FF8
:105A0000D001939FB00D1124A658B94FFE013196D5
:105A100001900D929A95E1F7809379060E94D30741
:105A2000AACF819FC00111248658994F0E94252B2F
:105A3000882309F4A7CF8091AA0690E00196877089
:105A400099278093AA0698CF0F931F93CF93DF9344
:105A5000CDB7DEB72A970FB6F894DEBF0FBECDBF25
:105A6000FC018091AA02882351F11092AA02809130
:105A70006A0690916B06A0916C06B0916D06BC0110
:105A8000CD010E94771C07E01DE581E08B83BE01FC
:105A90006F5F7F4FC8010E94F11E1B82BE016F5FC6
:105AA0007F4FC8010E94F11E2A960FB6F894DEBF00
:105AB0000FBECDBFDF91CF911F910F9108958081CF
:105AC00008E01DE5813009F381E08093AA0280910E
:105AD0006A0690916B06A0916C06B0916D06BC01B0
